:0400000081EF00F09C
:10000800C975C975C975C9754000C9754000C975F4
:10001800C975C975C975C975C975C975C975C975E8
:10002800C975400040004000C975C975C975C975D2
:10003800C975C975C975C975C975C975C975C975C8
:10004800C975C975C975C97540004000C975C975B4
:10005800C975C975C9754000C975C975C975C975A6
:10006800C975C975C975C975C975C975C975C97598
:10007800C975C975C975C9754000C975C975C97586
:10008800C975C975C975C975C975C975C975C97578
:100098006673C975C975C9754000C97540004000C7
:1000A800C975C975C975C975C975C975C975C97558
:1000B800C975C975C975C975C975C975C975C97548
:1000C800C975C975C975C975C975C975C975C97538
:1000D800C975C975C975C975C975C975C975C97528
:1000E8004000C975C975C97540004000400040000E
:0E00F800C975C975C975C975FF0051EFE2F0F1
:10C10E0000819FE0FC407E80FC00001000E92A03C5
:10C11E00E92103E902037F00202020202020202097
:10C12E002020202020202020434F5059524947489C
:10C13E00542028432920313938302C20444947498E
:10C14E0054414C2052455345415243482020000053
:10C15E0000000000000000000000000000000000D1
:10C16E0000000000000000000000000000000000C1
:10C17E0000000000000000000000000000000000B1
:10C18E0000000000000000000000000000000000A1
:10C19E000000000000000000CDE08CCD8EC5C3B1C4
:10C1AE000033D2EBF38AD0B102EBEDB02051E8F4BC
:10C1BE00FF59C3B00DE8F5FFB00AEBF151E8F3FFFC
:10C1CE005B8A070AC07501C34353E8D8FF5BEBF1E6
:10C1DE00BA2708B13BEBC1B93200BA3009EBB9B19D
:10C1EE003AEBB5B10DEBB18AD0B10EEBABE8A8FFCF
:10C1FE00A2CD08FEC0C3B10FEBF3C606470800BAC6
:10C20E002708EBF2B110E8E4FF7401C3B99B09EB08
:10C21E0020B111EBD8B112EBD4BA2708EBF3B1135E
:10C22E00EB1DE873FF0AC0C3B114EBF6BA2708EB97
:10C23E00F7E888FFE9B706B117EB04B2FFB120E9C2
:10C24E0056FF3C6172063C7B7302245FC3F6060503
:10C25E0008FF7458F6063909FF740533C0E887FFE6
:10C26E00BA0608E890FF7444A01508FEC8A2260876
:10C27E00BA0608E8B2FF7534BF0A00BE4B08B98093
:10C28E0000E8C502C606140800FE0E1508BA060818
:10C29E00E871FF7417A03909E84CFFBB0B00E820CA
:10C2AE00FFE832007411E85600E9BF01E85000B112
:10C2BE000ABA0900E8E1FEBB0B0033C92E8A0E0A4A
:10C2CE0000E30A8A07E87AFF880743E2F6882FC759
:10C2DE000635090B00C3B10BE8BDFE0AC07501C3DC
:10C2EE00B101E8B3FE0AC0C3B119EB10B133EB0CC8
:10C2FE008B160308E8F5FFBA8000B11AE999FEF62D
:10C30E00060508FF7501C3B000A20508E8D8FEBAFD
:10C31E000608E809FFA03909E9CCFEBFDC09BE001A
:10C32E000BB90600F3A6E302EB01C3F48A040AC0BC
:10C33E007501C33C207303E9930157BF3B09B9094B
:10C34E0000FCF2AE5FC38A043C007501C33C20744E
:10C35E0001C346EBF143C60720E2FAC351E8CCFF16
:10C36E005974F2433C2A7504B03FEB01468807E24C
:10C37E00EBE8B8FF740346EBF8C3B80000BB270820
:10C38E0003D853C6063A09008B363509E8B7FF893C
:10C39E0036370974081C40807C013A7405A03909AF
:10C3AE00EB123C1077043C007705B4FF5BEB39A22F
:10C3BE003A0946468807B90800E8A0FFB903003CD1
:10C3CE002E750146E895FF438BFB8BC1B90300FC2C
:10C3DE0033C0F3AA893635095BB90B0043803F3F62
:10C3EE007502FEC4E2F68A040AE4C3BF4409BB0622
:10C3FE0000BE2808B90400F3A6740803F94B75F1C2
:10C40E00B007C38A043C2075F78BC3C38CCAE8DB24
:10C41E00FEBA4B08E8E3FEC3C70635090B002E80B3
:10C42E003E0B000375062EC6060A0000BC3009E856
:10C43E003E01EB2C2EC6060A0000BC3009518AC103
:10C44E00B104D2D8240F8AD0A2CE08E8EFFDE8922C
:10C45E00FDA20508E888FD58240FA23909E887FDDA
:10C46E00E8A9FF2E803E0A0000751AFCBC3009E8D0
:10C47E0041FDE873FE0441E82BFDB03EE826FDE8E1
:10C48E008AFFE8C8FDFCE85FFEA239092E803E0B4C
:10C49E00003B74D78B363509E8ABFE74CEE8DAFE76
:10C4AE00752BF6063A09FF7403E94503803E28080A
:10C4BE0020741AE835FF48BBE20903D803D88B175E
:10C4CE00FFE2B99009EB03B95C09E9EFFCE8E3FC84
:10C4DE008B1E37098A073C20740C0AC0740853E877
:10C4EE00C3FC5B43EBEEB03FE8BAFCE8C5FC2EC6DE
:10C4FE00060A0000E974FFE880FEF6063A09FF75A9
:10C50E00CCBB2808B90B00803F207503B021C38A2D
:10C51E00073C207427432C303C0A73B18AF0F6C5D1
:10C52E00E075AA8AC5B103D2C002C572A002C57257
:10C53E009C02C672988AE8FEC975D4C3803F2075E6
:10C54E008C43FEC975F68AC5C3FCF3A4C3BB4B0866
:10C55E00B40002C103D88A07C3C606270800A03A52
:10C56E00090AC07424FEC8BB39093A07741BEB1DB7
:10C57E008A16CE08E8C6FCEB11A03A090AC0740967
:10C58E00FEC8BB39093A077501C3A03909E957FC42
:10C59E00C606F10901E82700803EF009007406B9CD
:10C5AE00AA09E817FCEB15C606F10900E810008091
:10C5BE003EF009007406B9C509E800FCE92F032E08
:10C5CE00C6060A0000C606F00900E8ADFD80FCFFB5
:10C5DE007503E9F8FEE881FFBB2808803F20750A45
:10C5EE00B50BC6073F43FECD75F8B20052E829FCE5
:10C5FE007503E8D2FE7503E99B00A0CD08B103D206
:10C60E00C88AC8B00AE845FFD0D0730EF606F10905
:10C61E00FF7515C606F00901EB70F606F109FF74F9
:10C62E0007C606F00901EB625A8AC2FEC252E91C25
:10C63E00052403507514E87AFB51E8ABFC5904410C
:10C64E00E86AFBB03AE865FBEB08E85EFBB03AE857
:10C65E005BFBE856FBB5018AC5E8F1FE247F3C2062
:10C66E00751358503C03750BB009E8E0FE247F3C6F
:10C67E00207416B020E835FBFEC580FD0C730A80D1
:10C68E00FD0975D3E824FBEBCE58E849FC7506E8A6
:10C69E0083FBE960FF5AC32EC6060A0000E8DAFCE7
:10C6AE0080FC0B7521B96409E811FBE89FFBBB0AFE
:10C6BE0000FE0F7403E9B3FD43803F597403E9AAEA
:10C6CE00FD43891E3509803E2808207467E889FEDF
:10C6DE00BA2708E848FBFEC07503E8EAFDEB4C2ECE
:10C6EE00C6060A0000E892FC754A803E28082074AF
:10C6FE0043E865FEE803FB74E1E8B7FABBFF00818F
:10C70E00FB8000720A53E823FB5B751BBB000043E2
:10C71E00BE4A0803F38A043C1A741053E886FAE8FA
:10C72E00B4FB5B7506EBD8FEC87503E9C001E89152
:10C73E00FDE845FEE996FD2EC6060A0000E83AFC25
:10C74E0075F2A03A0950E810FEE8CDFA7402EB55E6
:10C75E00BE2708BF3708B91000E8EDFD8B36350946
:10C76E00E8E3FB3C3D74043C5F753546893635097C
:10C77E00E807FC752B588AE8BB3A098A070AC07489
:10C78E00063AC5882F7519882FC606270800E8882F
:10C79E00FA7408BA2708E89EFAEB90E829FDEBF93F
:10C7AE00E8D6FDEB38B96F09E811FAEBECE847FD76
:10C7BE003C21751AE8FCF9E881FA0C303C3976090F
:10C7CE0050B031E8DFF9582C0AE8D9F9EB493C10A2
:10C7DE007202EB098AD0803E2808207503E9EDFC31
:10C7EE00A2CE08E857FAE90801B97B09E8CDF9EBC2
:10C7FE00A8E827FB803E280820751FA03A090AC02A
:10C80E007415FEC8A23909A33109E8CAF90BDB7405
:10C81E00CCA03909E8D0F9E9D700803E3008207461
:10C82E0002EBBAE833FDBF3008BE0008B90300F3CF
:10C83E00A4BA2708E8C3F97506E83DFDE98EFCE8C1
:10C84E008EF94074A4891E03088EC3E82BFD8CD884
:10C85E008EC0E825FBBB3A09538A07A22708B810F9
:10C86E0000E819FB5B8A07A23708C606470800BF17
:10C87E005C008E060308BE2708B92100E8CAFCBE7C
:10C88E000B00E8C1FA0AC0740EAC0AC074093C2051
:10C89E007402EBF5E8AFFAB500BF81004EACAA0A00
:10C8AE00C07404FEC5EBF68AC5BF8000AABF0000A7
:10C8BE00268B45032EA3FB07268A45052EA2FA07D3
:10C8CE00E8F0F8E82AFAC606CF08002EC6060A00D7
:10C8DE00008E0603088E1E0308BB0F00833F0074F4
:10C8EE00028E072EFF1EF907BC3009E9B1F8E88861
:10C8FE00FCE886FAA028082C20BB3A090A07750323
:10C90E00E968FBE9C7FB00000000000000434D444E
:10C91E000000000024242420202020205355420013
:10C92E0000000000000000000000000000000000F9
:10C93E0000000000000000000000000000000000E9
:10C94E0000000000000000000000000000000000D9
:10C95E0000000000000000000000000000000000C9
:10C96E0000000000000000000000000000000000B9
:10C97E0000000000000000000000000000000000A9
:10C98E000000000000000000000000000000000099
:10C99E000000000000000000000000000000000089
:10C9AE000000000000000000000000000000000079
:10C9BE000000000000000000000000000000000069
:10C9CE000000000000000000000000000000000059
:10C9DE000000000000000000000000000000000049
:10C9EE000000000000000000000000000000000039
:10C9FE000000000000000000000000000000000029
:10CA0E000000000000000000000000000000000018
:10CA1E000000000000000000000000000000000008
:10CA2E0000000000000000000000000000000000F8
:10CA3E0000000000000000000000000000090000DF
:10CA4E0001000B0000000000203D5F2E3A3B3C3EF3
:10CA5E002C444952535553455252454E2054595029
:10CA6E004545524120444952204E4F2046494C459F
:10CA7E0000414C4C2028592F4E293F0046494C4529
:10CA8E0020455849535453004D454D4F5259204E51
:10CA9E004F5420415641494C41424C45005245416C
:10CAAE0044204552524F52000D0A43414E4E4F54B0
:10CABE0020434C4F5345000D0A4E4F4E2D535953A4
:10CACE0054454D2046494C45285329204558495335
:10CADE0054000D0A53595354454D2046494C452890
:10CAEE00532920455849535400010A000000009A6A
:10CAFE00048A05D2052A06A0068304E40600000077
:10CB0E000000000000000000000000000031322094
:10CB1E004A616E7561727920313938320000000039
:10CB2E0000001201820000000000000000A3962405
:10CB3E0007C30000000000000000000000A1232336
:10CB4E00A39D24C7069B24FFFFE9C70400803EE097
:10CB5E00243C7203E9DAFA2401E9D5FA007207C718
:10CB6E00069B24FFFFC3E93B010000000031322089
:10CB7E006A616E7561727920383200000000000023
:10CB8E0000000000000000000000000000260FABB7
:10CB9E00156314B0151225FC15B515D315D815DE71
:10CBAE0015EA15F115EC0A06209D1F2720A120A7D6
:10CBBE0020D220EB20F420FD2003210C2115211B77
:10CBCE002121212821BA172E2134213D2146215819
:10CBDE0021612167216D217321F715F715C421D627
:10CBEE0021F821F10A570F760F800FAC0FCE0FF4FC
:10CBFE000F06104410A4101D0EB022E9030BBBA0AB
:10CC0E0024E94A16000000000000000000010A009E
:10CC1E000000001E8CC88ED88F069D2480F90574E6
:10CC2E000580F90D7205C606B124FF8C1694248971
:10CC3E00269624803E98240174078CC88ED0BC8E14
:10CC4E00248B1E96248E069424268B5F0481E3008B
:10CC5E00027401FB8CD85557560E078C062523E817
:10CC6E001A005E5F5D8E062523FA8E1694248B269F
:10CC7E009624C606B124008E1E9D24CF89169924B3
:10CC8E008816102333C0A39B24A22723A21523A208
:10CC9E001323BB89215380F929720980E90680F993
:10CCAE0036E9B9FE8AD9B7008ACA03DB2EFFA78000
:10CCBE000ABBAB23E819003C037555EB10BBB6233A
:10CCCE00EB08BBC223EB03BBBD23E80300E96A03F9
:10CCDE0053E8D308A0A4240441A2A723B99B23E8B8
:10CCEE00CF0859E8CB08E9AA071E5051C6062723DC
:10CCFE00FF880E282332ED8B3699248936A924BF5E
:10CD0E00C623893E99248E1E9D24FCF3A459581FD8
:10CD1E00C351B121EB0351B124E8CDFF59C30650E5
:10CD2E00518A0E282332ED8E069D24BEC6238B3EDD
:10CD3E00A924893E9924FCF3A4595807C3B1148B36
:10CD4E0016DC228E1E2323E805008CC88ED8C32E37
:10CD5E00C606982401CDE0C353BAD722E8F0FF5B94
:10CD6E00C350538B5C072B5C058B45072B45053B4E
:10CD7E00D8760287F75B58C32BDB2BD2C606E2228E
:10CD8E00FFB90800BE0C22803C007466803C027520
:10CD9E0005C606E22200837C0300743E8B4403A387
:10CDAE00D722837C07008B440574038B4407A3D9D9
:10CDBE002251B13852E8A0FF5A59803E9B2400748C
:10CDCE003151B136E891FF59A1D922394405731D6D
:10CDDE00894407B138E880FFEB18035C05837C07B4
:10CDEE0000740C035407730ABAF0FFEB05EB5B03F8
:10CDFE00540583C609E2900BD274298916D922B143
:10CE0E0037E854FF803E9B24007419B135E848FF83
:10CE1E003B1ED92277D7B137E83DFF8B16D9222B8F
:10CE2E00D3E82C008B3E9423A123238CC93BC175E0
:10CE3E0008C6450401FE069323EB12BE0C22B90868
:10CE4E00003804740883C609E2F7B0FFC3B000C30C
:10CE5E00803EE222FF750B8B1E112203DA891E1310
:10CE6E0022C3B002E8D4FF837C0700742E8BFEB879
:10CE7E000300E8C6FF837C07007419E8E3FED1EADD
:10CE8E008BDA035C053B5C0776072B5C0703D3EB61
:10CE9E0003895C07035505895507C3B003E89BFF5B
:10CEAE00035405895407C3837C07007404034407A5
:10CEBE00C3034405C3C606D62200A1D722803EE294
:10CECE0022FF750DC606D62201A30F22A3D422EB94
:10CEDE002CBE0C22B90800803C007419803C0275EF
:10CEEE0003A3D422837C0300750E894403803C097E
:10CEFE007503C60401E8AFFF83C609E2DAC383FDFA
:10CF0E0070750E5306E835FE075BBD0000BE542259
:10CF1E00C383C510C38BD82500F0B104D2ECB10485
:10CF2E00D3E383EB017302FECCC3A19D24A3232381
:10CF3E0006908916DC22A19424A3E022A19624A3B4
:10CF4E00DE228CCAB133E806FEBA0C22B11AE8FE14
:10CF5E00FDE8E9FD803E9B24007403E9CD00E8174F
:10CF6E00FE84C075F6E84DFFBA5422B11AE8DFFD13
:10CF7E00BD7000B90800BB0C2251803F0074248E96
:10CF8E004703BF00008B4F01E31951E870FFB9084A
:10CF9E0000FCF3A583FF0075078CC280C6108EC2FD
:10CFAE0059E2E75983C309E2D08E06D4228C069B40
:10CFBE0024BF0000B93000B000FCF3AABF0000A0EF
:10CFCE00D62226884505B201BE0C22B908003814B7
:10CFDE00740783C609E2F7EB308B440326894503B9
:10CFEE008B4405837C070074038B4407E826FF26D9
:10CFFE0088650226891D803EE222FF750C83C706D6
:10D00E002688650226891DEB0AFEC283C70680FAB2
:10D01E000876B5A1DC22A39924C606982400A1E0C7
:10D02E0022A39424A1DE22E903FB90E90FFB24FF47
:10D03E00FFEBE0A010233C01741FC6060A0000801F
:10D04E003E9323017705E86801EB0EE8F2018B1E93
:10D05E009423E8E900FE0E9323C606982400BB0332
:10D06E0025E9B7061E8E1E9D248BDA8A078B4F018B
:10D07E008B57031F5B33DB8AD802C002D881C300F3
:10D08E0025FFE38916A2248BCAE8B415C38B1EA212
:10D09E0024891E25238B1EA024E9B211832E9423EE
:10D0AE00058B3E94238B0789058B4702894502C663
:10D0BE004504008006292301C3E89B01750A803EC2
:10D0CE002A23007473E8ED01756E8B440239470212
:10D0DE0072038947028B048907EB53E8790175586F
:10D0EE0083C604FEC13A0E2A23734DE8480275F03A
:10D0FE008B440203042B073947027203894702EB64
:10D10E002DE853017532E8DD01752DE86B01E88BD2
:10D11E00FFEB1BE84101752083C604FEC13A0E2ABF
:10D12E00237315E8100275F0E84302E86EFFA02A9B
:10D13E002388470432C0EB02B0FFA29B24C38B4767
:10D14E0002A3D9228B07A3D722BBD722E81101EB6A
:10D15E000EE80301807F04FF7505E8E300EBCF8343
:10D16E007F020074D3E86C0275CEE8920274C9E8AF
:10D17E0063003C0075C2E8C40275168BFE8AE9E8AE
:10D18E00E60274088B4702014502EBA2E83802EB77
:10D19E009DE8D402750C8B0789048B47020144026B
:10D1AE00EB8CE8B7018B0789048B4702894402EBAD
:10D1BE00EF33C0A22923A29323B89323A39423E889
:10D1CE0081148BF38A0CD0E1D0E1FEC132EDBF2A7F
:10D1DE0023FCF3A4C38A0E2923B500BF8E238B072D
:10D1EE003905742173178B150355020347023BC291
:10D1FE00750B8B45022B4702894502EB4083EF05E9
:10D20E00E2DCB0FFC38B47023B4502741173F3039C
:10D21E000589058B45022B4702894502EB1F8B457D
:10D22E00FB89058B45FD8945028A45FF88450483A8
:10D23E00EF05E2D1FE0E29238306942305B000C329
:10D24E00803E292300740F8B1E9423807F0400756B
:10D25E0005E8EAFEEBEAC3B105E88DFA8B1E9924C8
:10D26E00B1FFBE2723B0FF803E2923087308837FBA
:10D27E0002007402FEC00AC0C3518B44022B470247
:10D28E0075098B048907E80B00EB07894402030438
:10D29E00890759C3515657A02A23FEC8A22A232A0A
:10D2AE00C1740E8AC832ED03C98BFE83C604FCF32B
:10D2BE00A55F5E59C3525733D2B5FF83C604FEC174
:10D2CE003A0E2A23730F8B44023BC272EE8BD08A26
:10D2DE00E98BFEEBE6B0FF8BF78ACDFEC57402FE3E
:10D2EE00C00AC05F5AC35257BAFFFFB5FF83C604C8
:10D2FE00FEC13A0E2A2373168B44022B4702741A70
:10D30E0072EB3BC273E78BD08AE98BFEEBDFB0FF8B
:10D31E008BF78ACDFEC57402FEC00AC05F5AC38B5E
:10D32E0047020307C353E8F6FF8946028BDEE8EE99
:10D33E00FF8946005BC35583EC048BEC51B5FFE8C7
:10D34E00E3FF8B073B04720A8B46003B46027202D8
:10D35E00B5008AC55983C4045D0AC0C3A02A23FE42
:10D36E00062A23B404F6E48BF08DB42B23C3558325
:10D37E00EC048BEC5251E8ACFF8B073B0475198B18
:10D38E0046023B460075075951E808FFEB32890407
:10D39E008B4702294402EB288B46002B4602750967
:10D3AE008B072B04894402EB178B072B048944024D
:10D3BE00E8A9FF8B460289042B4600F7D889440260
:10D3CE00595A83C4045DC38B4702034402014502CC
:10D3DE00E8C1FEC351525653E868128A2F8BF3836D
:10D3EE00EE035BB1FF83C604FEC13ACD7309E84577
:10D3FE00FF75F2B000EB02B0FF5E5A590AC0C3557A
:10D40E0083EC048BEC5651BE2723B1FF83C604FE7A
:10D41E00C13A0E2A23731BE80BFF8B073B047309DB
:10D42E008B46023B047707EBE33B460073DEB0000E
:10D43E00EB02B0FF595E83C4045D0AC0C35583EC92
:10D44E00048BECBE2723B1FF83C604FEC13A0E2A1D
:10D45E0023730CE8CFFE8B072B460075EBEB02B067
:10D46E00FF83C4045D0AC0C35583EC048BECBE2756
:10D47E0023B1FF83C604FEC13A0E2A23730CE8A41F
:10D48E00FE8B46022B0475EBEB02B0FF83C4045DEA
:10D49E000AC0C3BBE6228A07C607000AC07525E983
:10D4AE006C02E8EEFFE80A00721A508AC8E8C00063
:10D4BE0058C33C0D740E3C0A740A3C0974063C08B1
:10D4CE0074023C20C3A0E6220AC0754BE844022435
:10D4DE000174F1E838023C13753AE831023C0374EA
:10D4EE000332C0C3C606E52200803E932300750BAF
:10D4FE00E8200CA09B24A20508EB0EF606AF24FF35
:10D50E00740F803E9323017508C6060A0000E94891
:10D51E00FBE926FBA2E622B001C3A0E3220AC075F6
:10D52E001651E8A0FF5951E8EE015951803EB6243C
:10D53E00007403E8D301598AC1BBE5223C7F7416FF
:10D54E00FE073C207310FE0F8A070AC074088AC1BA
:10D55E003C087503FE0FC33C0A75FBC60700C38A61
:10D56E00C1E84EFF730A50B15EE8AEFF5980C94064
:10D57E0080F90975A5B120E8A0FFA0E52224077562
:10D58E00F4C3E80500B120E88E01B108E98901B1C4
:10D59E0023E886FFE81000A0E5223A06E42273E1B4
:10D5AE00B120E875FFEBF0B10DE86EFFB10AE96945
:10D5BE00FF8BF1AC3C2474C941518AC81E161FE87A
:10D5CE00AEFF1F59EBEBA0E522A2E4228B1E99249D
:10D5DE00268A0F4353B5005153E8B7FE5B593C0DF5
:10D5EE007503E9C6003C0A74F93C08750E0AED7421
:10D5FE00E6FECDA0E522A2E322EB513C7F750C0A9C
:10D60E00ED74D4268A07FECD4BEB7C3C05750C5190
:10D61E0053E893FFC606E42200EBBE3C107506F6F7
:10D62E0016B624EBB23C1875145BA0E422BBE522BF
:10D63E00903A07739190FE0FE847FFEBED3C15759E
:10D64E0007E84BFF5BE97EFF3C12753551E83FFF63
:10D65E00595B53510AED740F43268A0FFECD515379
:10D66E00E8FCFE5B59EBED53A0E3220AC074102ACE
:10D67E0006E522A2E322E809FFFE0EE32275F7EB90
:10D68E009843268807FEC551538AC8E8D1FE5B59D8
:10D69E00268A073C038AC5750B3C0175078CD88E0C
:10D6AE00C0E940FE3AC17303E92CFF5B26882FB117
:10D6BE000D8CD88EC0E962FEE8E7FDEB44E8620F00
:10D6CE00EB3F8AC1FEC07409FEC0754CE84400EB06
:10D6DE0030E83F000AC07503E9E60BE83000EB21A5
:10D6EE00E8630FEB1C8BCAE85F0FC38BCA1E8E1E3E
:10D6FE009D24E8BCFE1FC38E069D24E9C8FEE8C427
:10D70E00FDA29B24C3B001EBF8BB0F25EB0DBB09AB
:10D71E0025EB08BB0625EB03BB0C25FF1E0022C321
:10D72E00FFD3CBBB0622FF2751B5008BF28BFBFC40
:10D73E00F3A459C38A0EA424E8ED0E83FB007450A3
:10D74E008B1783C302891EEC2283C302891EEE222D
:10D75E0083C302891EF02283C30287DA891E09233E
:10D76E008B1EF222891EAD24BBF222B108E8B8FF4F
:10D77E008B16F422BBFA22B10FE8ACFFA00023BB3C
:10D78E001223C607FF0AC07403C60700B0FF0AC003
:10D79E00C3E8910E33C08B1EEE228907C38B161A77
:10D7AE0023E8900EEB078A0E0D23E88A0E0AC0744A
:10D7BE00DFBB0422E96FFF8B1EA624B102D3EB89D7
:10D7CE001E1A23891E1F23A11A23BA0000F736FA48
:10D7DE0022528BC88B36EE22890C030E0723E84AA1
:10D7EE000E598B160923E8540E8BCBE9400EBBFC69
:10D7FE00228A0FA01823D2E88AE8B1072A0FA017B1
:10D80E0023D2E002C5C38B1E992483C31003D98093
:10D81E003E12230074058A1FB700C303D98B1FC3A2
:10D82E00E8CBFF8AC8B500E8DCFF891E1A23C38B3C
:10D83E001E1A230BDBC38A0EFC228B1E1A23D3E384
:10D84E00891E1C23A018232206FD220AD8891E1A1F
:10D85E0023C38B1E992483C30C8A07C3BA0F0003FC
:10D86E00169924BB110003DAC3E8F0FF8A07A21849
:10D87E002387DA8A07A21623E8D7FFA0FE22220703
:10D88E00A21723C3E8D5FFA00F233C02750232C0B6
:10D89E0002061823880787DAA016238807C3B980E3
:10D8AE00008B1EF22232C0020743E2FBC3518A0EE6
:10D8BE00A424BB0100D3E3590BD9C3A1E8228A0EDD
:10D8CE00A424D3E82401C38B0EE822E8DFFF891ECF
:10D8DE00E8228B160123428B1EEC228917C3E81B0C
:10D8EE0000BA090003DA8A07D0D0731BBB0A22EBF9
:10D8FE0008E8C7FF7411BB0822E92AFE8B1EF2222C
:10D90E00A01E23B40003D8C38B1E992483C30E8A92
:10D91E0007C3E8F3FFC60700C3E8ECFF0C808807D7
:10D92E00C38B16A6248B1EEC223B17C3E8F2FF72A4
:10D93E00FA428917C3522BD38BDA5AC3B1FF8B1617
:10D94E001F238B1E0523E8ECFF73E051E84FFF8B7E
:10D95E001E1F23031EF62259FEC1740D3A07740BC7
:10D96E00E8BEFF7306E85FFFC38807C3E8CDFFE894
:10D97E001900B101E833FEEB06E80F00E81EFE8B3E
:10D98E000EA224E8BA0CBBA024EB088CD9E8B00C8C
:10D99E00BBF2228B0FE9990C8B16F2228B1EA02460
:10D9AE00B180068E06A224E87EFD07C3BBA6248A9C
:10D9BE0007433A077502FEC0C3BBFFFF891EA624AC
:10D9CE00C38B1601238B1EA62443891EA624E8644E
:10D9DE00FF7302EBE4A0A624240351B105D2E05953
:10D9EE00A21E230AC0752651E8CCFDE88BFF59E92B
:10D9FE004CFF8BD180E107FEC18AE9B103D3EA8BDC
:10DA0E001EF82203DA8A078ACDD2C08BD1C352E820
:10DA1E00E0FF24FE590AC1518ACED2C8880759C3E5
:10DA2E00E8D9FE83C31051B1115AFEC97501C35214
:10DA3E00803E122300740851538A0FB500EB07FE87
:10DA4E00C9518B0F43530BC9740B8B1EFF223BD94D
:10DA5E007203E8B9FF5B4359EBCF8B1EFF22B10374
:10DA6E00D3EB438BCB8B1EF822C6070043E2FA8B17
:10DA7E001603238B1EF8228917E815FD8B1EEC2248
:10DA8E00C7070300E832FFB1FFE835FFE81DFF745A
:10DA9E003BE868FE803FE574EEA0A5243A07750CBE
:10DAAE00438A072C247505FEC8A29B24B101E86F9A
:10DABE00FFE878FEEBD1A00E23E945FC518A2EFE3D
:10DACE0022F6D522CD22C52AC1241F59C38B1E99F9
:10DADE0024891E2123C6060E23FF880EA824C3E820
:10DAEE00EBFFE8D4FEE8A9FCC6069A2300B100E8D5
:10DAFE00CFFEE8B7FE7503E980008B1621238BF26B
:10DB0E00AC3CE5740752E818FE5A73EBE8EDFD8A5B
:10DB1E000EA824B5000AC974388BF2AC3C3F7429A8
:10DB2E0080FD0D742480FD0C74082A07247F753344
:10DB3E00EB17518A0FE884FF599FF6069A23FF755B
:10DB4E0045C6069723009E759F4243FEC5FEC9EB50
:10DB5E00C4C6060E2300A0A6242403A29B248AE892
:10DB6E00FEC5C30AED7530F607FF752BF606972333
:10DB7E00FF7424C6069A23FFEBCFE83CFEB0FF8A63
:10DB8E00E8FEC5E97BFB9E750E43803F0075088B52
:10DB9E0036A62489369823E94EFFE854FDB10CE8E9
:10DBAE003DFFE807FE74BBE834FDE84FFDC607E510
:10DBBE00B100E86BFEE8B4FDE82DFFEBE58BD10B71
:10DBCE00C9740C495251E829FED0D87318595A3BE2
:10DBDE0016FF22731A4251528BCAE815FED0D87323
:10DBEE00045A59EBDAD0D0FEC0E82BFE5B5AC30BB9
:10DBFE00C975CCBB0000C3B100B22052B5008B1664
:10DC0E00992403D1E8F5FC59E81DFBE8A9FBE95B73
:10DC1E00FDE8DDFCB10CE8C6FE8B1E99248A078355
:10DC2E00C3108807E885FD7501C3E8B1FCB110B2D9
:10DC3E000CE8C7FFE8B1FEEBEBB10CE8A1FEE86B18
:10DC4E00FD74E6B100B20CE8B1FFE89BFEEBEFB15C
:10DC5E000FE88BFEE855FD74D0E8F6FB5053E89BB9
:10DC6E00FC87DA8B1E9924B12052E8BBFAE8A9FC96
:10DC7E005ABB0C0003DA8A0FBB0F0003DA8A2F5B44
:10DC8E005888073A0F8AC57406B0007202B0808BAE
:10DC9E001E9924BA0F0003DA8807C3833F0075FA72
:10DCAE008BF2AD8907C333C0A29B24A3A624E80A36
:10DCBE00FC75F2E852FC248075EBB10FE820FEE80B
:10DCCE00EAFC74E1B91000E832FC03D987DA8B1E46
:10DCDE00992403D9B110803E122300741B8A070ABF
:10DCEE00C08BF2AC750288070AC075068A078BFADC
:10DCFE00FCAA3A077547EB16E8A0FF87DAE89BFF08
:10DD0E0087DA8BF28B043B0775334243FEC94243DD
:10DD1E00FEC975C2B9ECFF03D987DA03D98BF2AC11
:10DD2E003A0772118807B9030003D987DA03D98A33
:10DD3E00078BFAFCAAC6060B23FFE9CEFEFE0E9B4E
:10DD4E0024C3E8ACFBFF369924C7069924E722B119
:10DD5E0001E88BFDE855FC8F06992474E48B169927
:10DD6E0024BB0F0003DAB11132C0880743FEC97518
:10DD7E00F9BB0D0003DA8807E8B1FBE879FEE998F4
:10DD8E00FB32C0A20B23E81DFFE820FC74B38B1EF0
:10DD9E00992483C30C8A07FEC0241F8807740F8A38
:10DDAE00E8A0FE2222C522060B23740DEB2683C3A8
:10DDBE0002FE078A07240F7426B10FE821FDE8EB57
:10DDCE00FB7511A00C23FEC07415E875FFE8DCFB93
:10DDDE00740DEB03E882FEE88FFA32C0E922F9E80F
:10DDEE0023F9E934FBC6060F2301C6060C23FFE810
:10DDFE0077FAA018233A06162372183C807528E885
:10DE0E007FFFE857FA33C0A318238807803E9B2470
:10DE1E00007514E80AFAE816FA740CE818FAE8A67F
:10DE2E00F9E879F9E95DFAE9DBF8C6060F2301C6D0
:10DE3E00060C2300E8BAFA8B1E9924E8A3FAE82808
:10DE4E00FAA018233C807203E9BAF8E8D2F9E8DEAA
:10DE5E00F9B1007548E896F9A2112333C90AC074C6
:10DE6E00088AC849E89FF98BCBE851FD0BDB750595
:10DE7E00B002E98CF8891E1A2387DA8B1E99248347
:10DE8E00C310803E122300A01123B400740603D8E1
:10DE9E008817EB0703D803D8891743B102803E9B3E
:10DEAE0024007401C3880E0D23E88AF9803E0F23E7
:10DEBE00027545803E0D2302753EFF361A238B3EBA
:10DECE00F22233C0B94000FCF3ABE8BEFA8B1E1C45
:10DEDE0023891E1A23E8EFF8E8CBF88B1E1A23C607
:10DEEE00060D23008AC38A36FD2222C6433AC67522
:10DEFE00E08F061A23E887FAE8CCF8E8A8F8A0180D
:10DF0E0023BB16233A0772068807FE07B10250E8B4
:10DF1E00F6F9247F8807583C7F751E803E0F23013B
:10DF2E007517E85FF9E859FEBB9B248A070AC0758E
:10DF3E0005FEC8A21823C60700E948F9C6060F2336
:10DF4E0000518B169924BB210003DA8A07247F50D7
:10DF5E008A07D0D0438A07D0D0241F8AC88A07D018
:10DF6E00D8D0D8D0D8D0D8240F8AE858438A1F0AE0
:10DF7E00DBB3067569BB200003DA8807BB0C000310
:10DF8E00DA8AC12A07750DBB0E0003DA8AC52A0785
:10DF9E00247F743C5152E80DFD5A59B303A09B24C3
:10DFAE00FEC07432BB0C0003DA880FBB0E0003DA1E
:10DFBE00882FE89AFCA09B24FEC075145951B30417
:10DFCE00FEC17412E87BFDB305A09B24FEC074064F
:10DFDE005932C0E92BF753E82EF9C607C05B598AB0
:10DFEE00C3A29B24E932F9B1FFE850FF7503E8F9AB
:10DFFE00FDC3B100E845FF7503E833FEC387DA03BE
:10E00E00DA8A0FB500BB0C0003DA8A27B000D1E81C
:10E01E0080E40F03C8BB0E0003DA8A07B410F6E4DF
:10E02E005002E89C5B8AC35B0AC32401C3B10CE8AF
:10E03E00ADFA8B1E9924BA210003DA538837438830
:10E04E0037438837E865F97422E8B0F8BA0F00E86C
:10E05E00ABFF5B538AD08BC12B078AC21A47027261
:10E06E0005885702890FE87FFAEBD95BC38B1E999F
:10E07E0024BA2000E886FFBB210003DA890F884707
:10E08E0002C38B1EEA228A0EA424D3CB5387DAE86E
:10E09E00A2F65B7503E88BF6D0DB72678B0EEA2275
:10E0AE00E80AF8891EEA22E9B0F9A01023A2A424F6
:10E0BE00EBD0E85CECEB03E85CEC8B1E9924C60617
:10E0CE00962300F647088074098067087FC6069677
:10E0DE002360C6061323FF8B1E99248A07241FFE76
:10E0EE00C8A210233C1E7312A0A424A214238A07D4
:10E0FE00A2152324E08807E8B0FFA0A5248B1E9963
:10E10E00240807C3803E96236075078B1E9924C68C
:10E11E000700C3F7060222FFFF75048C0E0222339E
:10E12E00DB891EE822891EEA228A1EB724881EA4D5
:10E13E0024E94EFFE87BFFE8D8F7803EA524007463
:10E14E000BC7069923FE00C6069723FFE800FBE8DF
:10E15E003C00F6069723FF7501C3C6069723008180
:10E16E003E9923FE0074F28B1E982380E3FC4B89AC
:10E17E001EA624C6069623608B1E9924C60700B1E0
:10E18E000FE849F9E861F9E8CDFAE80100C3E81BA8
:10E19E00F874C65B803E96236075128B1E99248A96
:10E1AE00470A24807507A29623B0FFEB7EC3E801D1
:10E1BE00FFE9F2FAE85AEB8B1E9D24891EAB24B1BF
:10E1CE00008B1E9924803F3F7410E885F6803F3FF8
:10E1DE007403E83DF7E8E2FEB10FE802F9EB168BA7
:10E1EE001EAB24891E9D248B1EA924891E9924E80A
:10E1FE00C0FEE8F3F8E9A0F7E8B7FEE89CF9E9B548
:10E20E00F8E8AEFEE8FDFEE9DBFBE8A5FEE91AFC48
:10E21E00E89FFEE8FCF6E929FBE896FEE8F2F9E94C
:10E22E0094F88B1EEA22EB26A0A424E9D3F48916D7
:10E23E00A024E94AF78B1EF822EB138B1EE822EB83
:10E24E000DE86EFEE8F2F9E96CF88B1EF422891ED9
:10E25E009B24C3A010233CFF7505A0A524EBCC2462
:10E26E001FA2A524C3E84FFEE899FEE979FDE84612
:10E27E00FEE97EFDE840FEE9B3FDE899EAE9EDFD31
:10E28E00A19924F7D050BBEA222307890758BBE88F
:10E29E002223078907C3803E13230074248B1E9903
:10E2AE0024803E9623607504804F0880C60700A028
:10E2BE0015230AC0740B8807A01423A21023E8E9C3
:10E2CE00FD803E2723FF7503E853EAA19B248BD8DC
:10E2DE00C3E8E3FDC6060F2302B100E863FC75F048
:10E2EE00E94CFB1EB98000BF0B008B36A0248E1E9E
:10E2FE00A224ACAA0AC07402E2F8B0802AC11FA2FE
:10E30E000A00E93AEDC300000000000000131600F9
:10E31E0000A40BB00BB50BBA0B0000000000000000
:10E32E0000000000000000000000000000000000DF
:10E33E0000000000000000000000000000000000CF
:10E34E0000000000000000000000000000000000BF
:10E35E0000000000000000000000000000000000AF
:10E36E00000000000000000000000000000000009F
:10E37E00000000000000000000000000000000008F
:10E38E00000000000000000000000000000000007F
:10E39E00000000000000000000000000000000006F
:10E3AE00000000000000000000000000000000005F
:10E3BE00000000000000000000000000000000004F
:10E3CE00000000000000000000000000000000003F
:10E3DE00000000000000000000000000000000002F
:10E3EE00000000000000000000000000000000001F
:10E3FE0000000000E500000000000000000000002A
:10E40E0000000000000000000000000000000000FE
:10E41E0000000000000000000000000000000000EE
:10E42E0000000000000000000000000000000000DE
:10E43E0000000000000000000000000000000000CE
:10E44E0000000000000000000000000000000000BE
:10E45E0000000000000000000000000000000000AE
:10E46E00000000000000000000000000000000009E
:10E47E00000000000000000000000000000000008E
:10E48E00000000000000000000000000000000007E
:10E49E00000000000000000000000000000000006E
:10E4AE00000000000000000042646F73204572728D
:10E4BE00204F6E20203A20244261642053656374FD
:10E4CE006F722453656C6563742446696C652052C3
:10E4DE002F4F24000000000000000000000000008C
:10E4EE00000000000000000000000000000000001E
:10E4FE00000000000000000000000000000000000E
:10E50E0000000000000000000000000000000000FD
:10E51E0000000000000000000000000000000000ED
:10E52E0000000000000000000000000000000000DD
:10E53E0000000000000000000000000000000000CD
:10E54E0000000000000000000000000000000000BD
:10E55E0000000000000000000000000000000000AD
:10E56E00000000000000000000000000000000009D
:10E57E00000000000000000000000000000000008D
:10E58E00000000000000000000000000000000007D
:10E59E00000000000000000000000000000000006D
:10E5AE00000000000000000000000000000000005D
:10E5BE00000000000000000000000000000000004D
:10E5CE00000000000000000000000000000000003D
:10E5DE00000000000000000000000000000000002D
:10E5EE0000000000000000000000000000500000CD
:10E5FE00000000000000000000000000000000000D
:10E60E0000000000000000000000000000000000FC
:10E61E000000B830FF8ED88EC08ED0A37801B8001F
:10E62E00018BE0A36A01B049A25C0133C0A3520181
:10E63E00A35801A35A01A27C01BB6001B90E008947
:10E64E000743434975F9B84000A35001A37401A3D1
:10E65E007E01B80025A37201A38001B84000A37605
:10E66E0001A37A0133C08EC0BE4A088BF8B90002EE
:10E67E002E8B04464626890547474981FE5E08755E
:10E68E00EFB8B707BB50FF268905474726891D47B8
:10E69E0047494975F2BF8400B8B606268905474733
:10E6AE0026891DBBFD07B80001D5000AC07503BB46
:10E6BE00F607891E5D01BBEA07E89C098B1E5D010A
:10E6CE00E89509BBC707E88F09EA00254000B83076
:10E6DE00FF8ED88ED0BC0001BB0308E87A09E84350
:10E6EE0005BB0001E88C05E8930522C074E03C44AC
:10E6FE007502EB2B3C477503E941013C537503E969
:10E70E00FC013C4C7503E97F023C527503E974032E
:10E71E003C547503E94904BB2008E83B09EBAF43C1
:10E72E00E865050AC97515E849050AC075E98B162D
:10E73E00520181C2800089165401EB408A073C3A8F
:10E74E00750C8916500143E83E050AC974C989162D
:10E75E0052018A073C2C740E0AC075BB81C2800020
:10E76E0089165401EB1643E81E05E806050AC9741E
:10E77E00A68A070AC075A042891654018E0650015A
:10E78E008B36520183E6F032C0A25601E82300E830
:10E79E0016090AC07512A056013C0272EF8B1E5468
:10E7AE0001891E5201E926FF89365201E8E208E985
:10E7BE001CFFA15001E81504B03AE8F3088BC6E837
:10E7CE000B04BB2808E89008BF0001B91000E82828
:10E7DE0000E2FBBB2B08E87F08BF0001B910008ADE
:10E7EE0005473C2072093C7F7305E8C308EB05B072
:10E7FE002EE8BC08E2E9E92104B020E8B208A056F0
:10E80E00010AC0751A3B365201740FB0208805E814
:10E81E009E08B020E899084647C3B001A25601A051
:10E82E0056013C0175E5268A048805E8A60346478D
:10E83E003B3654017505B002A25601C332C0A27C0C
:10E84E000143E843040AC9741D8A073C3A751089CE
:10E85E0016740189167E0143E82D040AC9741989BC
:10E86E00167201E80D048A070AC074373C2C75082D
:10E87E0043E814040AC97503E99CFEA17401A37E42
:10E88E00018A073C3A750C89167E0143E8F9030AA2
:10E89E00C974E589168001E8D9030AC075DAB0019A
:10E8AE00A27C01A07C010AC07414A17E018EC08BD3
:10E8BE00368001268A04A27D01B0CC2688042EC69D
:10E8CE0006000007E6008E1678018B266A01A16805
:10E8DE000150A1740150A1720150A160018B1E6202
:10E8EE00018B0E64018B1666018B2E6C018B366EBE
:10E8FE00018B3E70018E067A018E1E7601CF43E8A3
:10E90E0086030AC9741F8A073C3A750C8916500192
:10E91E0043E874030AC9746D89165A01E854038AD0
:10E92E00070AC07560A150018EC0E8A002B03AE897
:10E93E007E078B365A018BC6E89202BB2B08E8176E
:10E94E0007268A04E88D02B020E86407E8D502BBEA
:10E95E000001E81E038A070AC075074689365A0168
:10E96E00EBC33C2D75074E89365A01EBB83C2E751C
:10E97E0003E95AFDE811030AC9740A268814468968
:10E98E00365A01EBA0E98FFD43E8FC020AC9741464
:10E99E008A073C3A75108916500143E8EA020AC903
:10E9AE007430EB0233D28A070AC075268BF28E06BC
:10E9BE005001B02EE8F906E8D706E8C0023C5374C1
:10E9CE006B3C3A74103C0D74E93C0A74E5E8C106E0
:10E9DE00EBF3E942FDE816028AC88AD8E80F028AEC
:10E9EE00F002C8E808028AD002C88BFA03FEE8FDDE
:10E9FE0001A25F0102C80ADB7415E8F10102C88AA0
:10EA0E003E5F010AFF750426880547FECB75EBE8CD
:10EA1E00DC0102C1750DA05F010AC074A8E8FA01FD
:10EA2E00E9ABFCBB0608E82F06E9A2FCE86206A2E9
:10EA3E005F01E8B9018AD88AC8E8B2018AF002C833
:10EA4E00E8AB018AD002C88BFA03FE80EB03722B6F
:10EA5E007416E8990102C88A3E5F0180FF31750481
:10EA6E0026880547FECB75EAE8830102C13CFF7597
:10EA7E000AA05F013C3974A5E94AFFBB1308E8D729
:10EA8E0005E94AFC43E8EB01E8F2010AC07506E825
:10EA9E007F00E939FCBE2F092E3A04740D2E8A4CE4
:10EAAE00010AC9746983C606EBEE2E8A44013C0F37
:10EABE00750C2E8B7402438A07E8C101EBDA0AC08B
:10EACE00744C2E8A4C012E8B5C04E88B05B03DE80D
:10EADE00DE052E8B5C0280E107535180F90175072C
:10EAEE008A07E8EF00EB058B07E8E100B020E8BFEE
:10EAFE0005E83001BB0001E88E010AC9740D595BAF
:10EB0E0080F90175048817EB028917E9C0FBE90645
:10EB1E00FCBE97082E8B1C0BDB7411E83A0546469B
:10EB2E002E8B1C8B07E8A5004646EBE8BB1909E8BF
:10EB3E002605BF8201BB1F09B110A1680125D50FA3
:10EB4E00D1E07205C6052EEB052E8A2F882D434780
:10EB5E00FEC975ECC60500BB8201E8F304E9BA00F4
:10EB6E0043E824010AC974198A073C3A750C8916C0
:10EB7E00740143E812010AC9740D89167201E8F294
:10EB8E00008A070AC07403E98DFB2EC60600000733
:10EB9E00E6008E1678018B266A01A168010D000130
:10EBAE0050A1740150A1720150A160018B1E62012F
:10EBBE008B0E64018B1666018B2E6C018B366E01EB
:10EBCE008B3E70018E067A018E1E7601CF508AC45E
:10EBDE00E801005850D0E8D0E8D0E8D0E8E80100CD
:10EBEE0058240F04303C3A72020407E9C20432C0C2
:10EBFE00E80800D0E0D0E0D0E0D0E08AE8E8910468
:10EC0E00E87A003C3072123C3A720A3C41720A3C7D
:10EC1E004773062C072C300AC5C3B00DE89104B01B
:10EC2E000AE98C04BB000132C9E865043C0D743B53
:10EC3E003C0A74373C08741B3C7F74173C2072E905
:10EC4E003C8073E580F94F73E08807E8620443FE69
:10EC5E00C1EBD622C974D24BFEC9B008E85104B03C
:10EC6E0020E84C04B008E84704EBBEE8ACFFB00067
:10EC7E008807C38A073C20750343EBF7C33C6172D8
:10EC8E00063C7B730204E0C3E8E8FF32C933D28A44
:10EC9E0007E8E9FF3C30721F3C3A720A3C4172179A
:10ECAE003C4773132C072C30D1E2D1E2D1E2D1E2F2
:10ECBE000AD043FEC1EBD8C380FC077504E8D1032C
:10ECCE00CF80FC0275068AC2E8E503CF80FC0B7587
:10ECDE0008E8D4037402B0FFCF80FC0075FAB83098
:10ECEE00FF8ED88ED0BC0001E9B000501EB830FFA8
:10ECFE008ED8891E6201890E6401BB5E0833C9EB92
:10ED0E0057501EB830FF8ED8891E6201890E6401DD
:10ED1E00BB6F0833C9EB41501EB830FF8ED8891E29
:10ED2E006201890E6401BB780833C9EB2B501EB803
:10ED3E0030FF8ED8891E6201890E6401BB8008B92E
:10ED4E000100EB14501EB830FF8ED8891E62018967
:10ED5E000E6401BB8A0833C958A3760158A360011B
:10ED6E0089166601892E6C0189366E01893E700105
:10ED7E008C067A01582BC1A3720158A37401582531
:10ED8E00D50EA3680189266A018C167801B830FF6A
:10ED9E008ED0BC0001E8C002E876FDA07C010AC05E
:10EDAE007414A17E018EC08B368001A07D01268851
:10EDBE000432C0A27C01E915F93540008ED88EC010
:10EDCE0033C08BC8EA032540004E6F7720696E76FC
:10EDDE006F6B696E67204F7065726174696E672024
:10EDEE0053797374656D2E2E2E0D0A0043505520E7
:10EDFE0054595045203A2000383038380D0A005604
:10EE0E0032300D0A005D20004572726F7220696803
:10EE1E0065780D0A004572726F7220737265630D0C
:10EE2E000A004572726F720D0A00203A00203A20D5
:10EE3E00003A303030303030303146460D0A005313
:10EE4E003930333030303046430D0A00E90650FF7A
:10EE5E00FF0650FF150750FF2B0750FF420750FFCC
:10EE6E000D0A446976696465206572726F720D0AC7
:10EE7E00000D0A537465700D0A000D0A4E4D490DB2
:10EE8E000A000D0A427265616B0D0A000D0A4F767B
:10EE9E006572666C6F770D0A00D3086001D7086241
:10EEAE0001DC086401E1086601E6086801EB0874FC
:10EEBE0001F0087601F5087801FA087A01FF086A70
:10EECE000105096C010A096E010F0970011409721E
:10EEDE00010000000041583D002042583D002043F3
:10EEEE00583D002044583D0020464C3D00204353E1
:10EEFE003D002044533D002053533D002045533DDB
:10EF0E00000D0A53503D002042503D002053493D14
:10EF1E00002044493D002049503D0020464C623DB2
:10EF2E00002E2E2E2E4F444954535A2E412E502E23
:10EF3E0043410F65090000420F7D090000430F9BFE
:10EF4E00090000440FB9090000450FB90900004639
:10EF5E00026801400A490FE9090000530FF5090044
:10EF6E0000000000000000580260010D0A48016117
:10EF7E0001100A4C016001130A0000000000005845
:10EF8E00026201160A48016301190A4C0162011C52
:10EF9E000A50026C011F0A000000000000580264B3
:10EFAE0001220A48016501250A4C016401280A5311
:10EFBE000274012B0A000000000000580266012EA8
:10EFCE000A48016701310A4C016601340A49027090
:10EFDE0001370A530276013A0A000000000000537E
:10EFEE00027A013D0A000000000000500272014248
:10EFFE000A00000000000049026E01450A50026A34
:10F00E0001480A530278014B0A000000000000413B
:10F01E005800414800414C00425800424800424CC2
:10F02E0000425000435800434800434C00435300F5
:10F03E00445800444800444C0044490044530045A1
:10F04E00530046004950005349005350005353009B
:10F05E005152531E8CDAEB065152531E8CCA32C9D2
:10F06E008EDA8A070AC07405FEC143EBF51F5B2ECC
:10F07E00C6060000042E880E01002E891E02002EE8
:10F08E0089160400E6002EA000000AC075F85A5931
:10F09E00C32EC606000001E6002EA000000AC075B1
:10F0AE00F82EA0010022C0C32EC606000003EBE717
:10F0BE002EC6060000022EA20100EBDBFFFFFFFFB3
:10F0CE00FFFFFFFFFFFFFFFFFFFFFFFFFFFFFFFF42
:10F0DE00FFFFFFFFFFFFFFFFFFFFFFFFFFFFFFFF32
:10F0EE00FFFFFFFFFFFFFFFFFFFFFFFFFFFFFFFF22
:10F0FE00FFFFEA100050FFFFFFFFFFFFFFFFFFFFC4
:10F10E00FFFFE98000E9AC00E9B800E9C500E9E2DB
:10F11E0000E9F400E9F700E9F700E97E01E94B01A7
:10F12E00E97C01E98601E9A201E9BF01E9E001E913
:10F13E00D900E98501E9A101E9AC01E9D600E9D7D9
:10F14E000090909090909090909090909090909041
:10F15E0090909090909090909090909090909090A1
:10F16E009090909090909090909090909090909091
:10F17E009090909090909090909090909090909081
:10F18E0090909090908CC88ED08ED88EC0BC8C2BC8
:10F19E00FC1EC6061B2700B800008ED88EC0C70600
:10F1AE008003060B8C0E82031FBB1C27E86E00B17A
:10F1BE0000E94EDAE951DAFA8CC88ED8BB5D27E841
:10F1CE005B00F40652BA50FF8EC25A26C6060600DF
:10F1DE0003EB0E0652BA50FF8EC25A26C606060022
:10F1EE0001E60026A006000AC075F826A007002238
:10F1FE00C007C30652BA50FF8EC25A26C606060074
:10F20E000226880E0700EBD932C0C332C0C332C00B
:10F21E00C332C0C3A01B27C3880E1B27C30651527F
:10F22E0053BA50FF8EC232C98A070AC07405FEC196
:10F23E0043EBF55B26C60606000426880E0700265D
:10F24E00891E0C00268C1E0E00E60026A006000A63
:10F25E00C075F85A5907C30651B950FF8EC17206D0
:10F26E002688055907C3268905EBF88AC13C047226
:10F27E0012BBE2273C087418BBF2273C097411BB81
:10F28E000000C3B5008BD9B104D3E3B9792703D9F4
:10F29E0057BF08000AC0E8BEFF5FC332C0EB028A48
:10F2AE00C157BF09000AC0E8ADFF5FC38BC157BF8E
:10F2BE000A00F9E8A1FF0BC05FC30BD274098BD90A
:10F2CE0003DA8A1FB700C38BD943C38BC157BF0C58
:10F2DE0000F9E882FF0BC05FC38BC157BF0E00F968
:10F2EE00E874FF0BC05FC3BB7427C306B850FF8E14
:10F2FE00C026C606060005E60026A006000AC07552
:10F30E00F826A0070022C07404B0010AC007C30685
:10F31E00B850FF8EC026C606060006EBDA000D0AB0
:10F32E000D0A43502F4D2D38362042494F5320564B
:10F33E00322E302047656E657261746564210D0A48
:10F34E00454D55383038382F563230206564697443
:10F35E00696F6E2E20323032342E30330D0A000D8E
:10F36E000A496E74657272757074205472617020E1
:10F37E0048616C740D0A01F90237FCC827000000C1
:10F38E000000001128B927B0289128C827000000D6
:10F39E000000001128B927DF28C028C82700000068
:10F3AE000000001128B9270E29EF28C827000000F9
:10F3BE000000001128B9273D291E291A0003070055
:10F3CE00F2003F00C0001000020001070D131905E6
:10F3DE000B111703090F1502080E141A060C12183A
:10F3EE00040A101600000000000000001128022878
:10F3FE004B2B4D29000000000000000011280228B0
:10F40E004B2B4C2A8000040F00F707FF03FFFF0071
:10F41E00000000FFFFFFFFFFFFFFFFFFFFFFFFFFEB
:10F42E00FFFFFFFFFFFFFFFFFFFFFFFFFFFFFFFFDE
:10F43E00FFFFFFFFFFFFFFFFFFFFFFFFFFFFFFFFCE
:10F44E00FFFFFFFFFFFFFFFFFFFFFFFFFFFFFFFFBE
:10F45E00FFFFFFFFFFFFFFFFFFFFFFFFFFFFFFFFAE
:10F74E00FFFFFFFFFFFFFFFFFFFFFFFFFF00FFFFBA
:10F75E00FFFFFFFFFFFFFFFFFFFFFFFFFFFFFFFFAB
:10F76E00FFFFFFFFFFFFFFFFFFFFFFFFFFFFFFFF9B
:10F77E00FFFFFFFFFFFFFFFFFFFFFFFFFFFFFFFF8B
:10F78E00FFFFFFFFFFFFFFFFFFFFFFFFFFFF005326
:10F79E004420436172643A20726561643531323AB5
:10F7AE0020435243206572726F72202825303478C0
:10F7BE0020213D20253034782C2072657472793DDD
:10F7CE002564290A0D00496D6167652066696C65BF
:10F7DE002025732F445249564525632E44534B2002
:10F7EE0069732061737369676E656420746F20643A
:10F7FE00726976652025630A0D006469736B5F6913
:10F80E006F63746C3A20706472763D25642C2063AD
:10F81E006D643D25642C20627566663D3078256CDE
:10F82E00783A207265733D25640A0D0053442043D7
:10F83E006172643A2020726561643531323A20611A
:10F84E006464723D25386C642C206F6666733D25AA
:10F85E00642C20636F756E743D25640A0D0053444D
:10F86E0020436172643A2077726974653531323A99
:10F87E0020616464723D25386C642C206F6666735B
:10F88E003D25642C20636F756E743D25640A0D0052
:10F89E00534420436172643A20777269746535313E
:10F8AE00323A206661696C656420746F20676574F6
:10F8BE0020746F6B656E2C2074696D656F75740A9C
:10F8CE000D00534420436172643A20777269746567
:10F8DE003531323A2074696D656F75742C207265FE
:10F8EE0073706F6E736520697320253032780A0D40
:10F8FE0000534420436172643A20434D4435382C02
:10F90E002052333D25303278202530327820253074
:10F91E003278202530327820253032780A0D0025B5
:10F92E00733A204552524F523A20636C6F636B20EC
:10F93E007370656564202564206973206E6F742072
:10F94E00737570706F727465640A0D0053442043B2
:10F95E006172643A20434D44382C2052373D253095
:10F96E0032782025303278202530327820253032FA
:10F97E007820253032780A0D006469736B5F696FE9
:10F98E0063746C3A20706472763D25642C20636D2E
:10F99E00643D25643A204E6F742068616E646C6518
:10F9AE00642E0A0D006469736B5F726561643A20A0
:10F9BE0020706472763D25642C20736563746F72BB
:10F9CE003D256C642C20636F756E743D25640A0DA5
:10F9DE00006469736B5F77726974653A2070647244
:10F9EE00763D25642C20736563746F723D256C64BF
:10F9FE002C20636F756E743D25640A0D004C6F618B
:10FA0E0064204343505F42444F53203D20253036FF
:10FA1E006C782C2053797374656D2073697A652028
:10FA2E003D20253034780D0A005344204361726422
:10FA3E003A2043435320284361726420436170612E
:10FA4E006369747920537461747573292069732006
:10FA5E00300A0D004C6F616420756E696D6F6E20FB
:10FA6E003D202530366C782C2050726F6772616D98
:10FA7E002073697A65203D20253034780D0A0053B5
:10FA8E004420436172643A2077726974653531326D
:10FA9E003A20435243206572726F72202872657449
:10FAAE0072793D2564290A0D005344204361726426
:10FABE003A204361726420706F77657220757020F2
:10FACE007374617475732062697320697320300AD0
:10FADE000D004C6F6164204342494F53203D202559
:10FAEE0030366C782C2053797374656D2073697A77
:10FAFE0065203D20253034780D0A00726561642042
:10FB0E004D425220706172746974696F6E20746117
:10FB1E00626C6520617420736563746F7220300AA5
:10FB2E000D00534420436172643A205344484320ED
:10FB3E006F7220534458432063617264206465746D
:10FB4E0065637465640A0D0025733A204552524F61
:10FB5E00523A206D6F6465202564206973206E6FA4
:10FB6E007420737570706F727465640A0D0053445F
:10FB7E0020436172643A20696E697469616C697AB6
:10FB8E0065202E2E2E207375636365656465640A89
:10FB9E000D00534420436172643A20756E6578708F
:10FBAE00656374656420726573706F6E736520256E
:10FBBE003032780A0D005573652050574D33202092
:10FBCE00252E3266204D487A20666F7220383038E6
:10FBDE003820636C6F636B0A0D00534420436172CF
:10FBEE00643A2041434D44343120726573706F6E18
:10FBFE00736520697320253032780A0D0053442036
:10FC0E00436172643A2077726974653531323A20F5
:10FC1E00746F6B656E20697320253032780A0D0083
:10FC2E00534420436172643A20434D443539207267
:10FC3E006573706F6E736520697320253032780A94
:10FC4E000D004D656D6F72792030303030303020C0
:10FC5E002D202530366C5848202564204B42204FED
:10FC6E004B0D0A00706172746974696F6E20737443
:10FC7E006172747320617420736563746F722025D2
:10FC8E006C640A0D00665F777269746528293A20E4
:10FC9E004552524F52207265733D25642C206E3DA5
:10FCAE0025640A0D00665F7265616428293A204555
:10FCBE0052524F52207265733D25642C206E3D25A5
:10FCCE00640A0D006661696C656420746F2077723A
:10FCDE0069746520736563746F7220256C640A0DF8
:10FCEE00006661696C656420746F207265616420C2
:10FCFE00736563746F7220256C640A0D000A0D53D0
:10FD0E004420436172643A20696E697469616C695A
:10FD1E007A65202E2E2E0A0D005344204361726404
:10FD2E003A2041434D4434312C2052313D2530325E
:10FD3E00780A0D00554E4B4E4F574E20756E696D1D
:10FD4E006F6E20434D442825303278290D0A004627
:10FD5E0061696C656420746F206F70656E2053440A
:10FD6E0020436172642E2E0A0D004661696C656433
:10FD7E0020746F206D6F756E742053442043617232
:10FD8E00642E0A0D006661696C656420746F2072C2
:10FD9E0065616420736563746F7220300A0D000A0A
:10FDAE004D656D6F7279206572726F72206174206D
:10FDBE002530366C58480A0D006469736B5F696EA6
:10FDCE00697469616C697A65282564292E2E2E0A5C
:10FDDE000D00534420436172643A206E6F74207399
:10FDEE0075706F70727465640A0D00534420436120
:10FDFE0072643A20434D44302C2052313D2530322E
:10FE0E00780A0D00202020202020202020202020D5
:10FE1E0020202020202020202020200D0077616926
:10FE2E007420666F722070726F6772616D6D65728D
:10FE3E00202E2E2E0D002573253533732043484575
:10FE4E00434B53554D3A20253032780A0D004D65FF
:10FE5E006D6F727920303030303030202D202530CB
:10FE6E00366C58480D00706879736963616C206454
:10FE7E00726976657220213D20300A0D00665F6C36
:10FE8E007365656B28293A204552524F52202564DE
:10FE9E000A0D006E6F204641543332207061727429
:10FEAE006974696F6E0A0D00665F73796E63282937
:10FEBE003A204552524F522025640A0D006E6F2093
:10FECE004D4252207369676E61747572650A0D003A
:10FEDE00534420436172643A2074696D656F757482
:10FEEE000A0D006E6F2076616C696420766F6C75FA
:10FEFE006D650A0D00534420436172643A207265A9
:10FF0E006164792E0A0D0025732069732073656C68
:10FF1E0065637465642E0A0D005350495F53445F48
:10FF2E00636F6E666967757265004E6F20626F6FE4
:10FF3E0074206469736B2E0A0D002A2B2C3A3B3CFD
:10FF4E003D3E5B5D7C223F7F0025732F4452495618
:10FF5E004525632E44534B004E6F2053442043617E
:10FF6E0072643F0A0D00426F6172643A2025730A73
:10FF7E000D00454D55383038385F52414D002573D0
:10FF8E002530366C783A004641543332202020001A
:10FF9E0025643A2025730A0D0053656C6563743A27
:10FFAE00200043504D4449534B53002573253034A4
:10FFBE00783A0043504D4449537E00286E756C6C60
:10FFCE0029002025303278006661743A200062756F
:10FFDE00663A200053443A200052443A20005752C9
:10FFEE003A2000303A2F2F00696E66006E616E0067
:01FFFE000002
:020000040001F9
:1000000083C6D9F484C6DAF4DE6ADD6A81C604F5F3
:1000100082C605F5A7ECCDF004C592F605C593F6AA
:10002000060193BF18EF80F016EF80F01BEF80F011
:100030000B0E61EF85F0D8909235D96E9335DA6E5C
:10004000370ED926070EDA22DEC4ADF6DDC4AEF6D1
:10005000AD51AE11D8A42FEF80F031EF80F034EF26
:1000600080F00C0E61EF85F083C6D9F484C6DAF413
:10007000ADC6DEF4AEC6DDF48591ADC6D9F4AEC62C
:10008000DAF4DF50D8B447EF80F049EF80F070EF3A
:1000900080F020EE01F0AD51D926AE51DA22DF50CA
:1000A000B8ECE4F00601A26FA2B159EF80F05BEF6B
:1000B00080F070EF80F08551D8B461EF80F063EF8D
:1000C00080F06DEF80F0A2A568EF80F06AEF80F01D
:1000D0006DEF80F00A0E61EF85F0000E61EF85F0A4
:1000E000ADC6D9F4AEC6DAF4DF6A20EE01F0AD5148
:1000F000D926AE51DA22DF5088ECBCF00601A26F9F
:10010000A2A185EF80F087EF80F08AEF80F0030EE8
:1001100061EF85F08551D8B490EF80F092EF80F0D8
:100120009BEF80F0A2A597EF80F099EF80F09BEF16
:1001300080F06AEF80F0ADC632F6AEC633F6000E40
:10014000356F000E346F81ECC7F032C6ABF633C6A4
:10015000ACF6040E0601AB19AC11D8A4B2EF80F0D6
:10016000B4EF80F0B7EF80F0010E61EF85F0AC5195
:1001700009E1020EAB5DD8A0C0EF80F0C2EF80F0C5
:10018000C5EF80F00D0E61EF85F020EE2CF0AD5143
:10019000D926AE51DA22DEC49EF6DEC49FF6DEC456
:1001A000A0F6DEC4A1F63B0EAD25046E000EAE2116
:1001B000056EEEECE9F0020E05180410D8B4E3EF7A
:1001C00080F0E5EF80F0E7EF80F0C2EF80F0460EC0
:1001D0000601AD25046E000EAE21056EEEECE9F0D1
:1001E00004C5A7F605C5A8F60601A96BAA6BA75119
:1001F000A811A911AA11D8A400EF81F002EF81F093
:1002000012EF81F0540EAD25046E000EAE21056E86
:1002100045ECE1F004C5A7F605C5A8F606C5A9F6A4
:1002200007C5AAF6060120EE18F0AD51D926AE5149
:10023000DA22A7C6DEF4A8C6DEF4A9C6DEF4AAC692
:10024000DEF420EE40F0AD51D926AE51DA2210EEA8
:1002500003F0AD51E126AE51E222DFC4E7F420EE17
:1002600003F0AD51D926AE51DA22DE04D8B43BEF0B
:1002700081F03DEF81F04EEF81F020EE03F0AD51C3
:10028000D926AE51DA22020EDE18D8B44AEF81F038
:100290004CEF81F04EEF81F0C2EF80F0A7C604F57D
:1002A000A8C605F5A9C606F5AAC607F520EE03F00F
:1002B000AD51D926AE51DA22DF50866F8651086ED5
:1002C000096A0A6A0B6A68ECE6F004C5A7F605C578
:1002D000A8F606C5A9F607C5AAF6060120EE3DF068
:1002E000AD51D926AE51DA22DF50866F876B20EEF2
:1002F0000AF0AD51D926AE51DA2286C6DEF487C6A1
:10030000DDF420EE0AF0AD51D926AE51DA22DE50EE
:10031000DE10D8B48EEF81F090EF81F0C2EF80F064
:1003200020EE0AF0AD51D926AE51DA22DEC486F6AF
:10033000DDC487F620EE0AF0AD51D926AE51DA229F
:10034000DEC488F6DDC489F6FF0E88258A6FFF0EAD
:1003500089218B6F86518A158C6F87518B158D6F14
:100360008C518D11D8B4B7EF81F0B9EF81F0BBEFAC
:1003700081F0C2EF80F0410EAD25046E000EAE217B
:10038000056EEEECE9F0060120EE08F0AD51D9263D
:10039000AE51DA2204C5DEF405C5DDF420EE08F026
:1003A000AD51D926AE51DA22DEC486F6DDC487F619
:1003B0000F0E8617000E871786518711D8B4E3EF0A
:1003C00081F0E5EF81F0E7EF81F0C2EF80F0430EBE
:1003D000AD25046E000EAE21056EEEECE9F004C50D
:1003E0009AF605C59BF606019C6B9D6B9A519B1175
:1003F0009C119D11D8A4FFEF81F001EF82F011EF65
:1004000082F0500EAD25046E000EAE21056E45EC57
:10041000E1F004C59AF605C59BF606C59CF607C52E
:100420009DF63E0E0601AD25046E000EAE21056E52
:10043000EEECE9F004C598F605C599F60601985169
:100440009911D8A426EF82F028EF82F02AEF82F0EB
:10045000C2EF80F020EE08F0AD51D926AE51DA227D
:10046000DEC486F6DDC487F6040E886FD890873325
:100470008633882F36EF82F098518625896F9951FF
:1004800087218A6F8B6BD8B08B2B8C6BA7518925FA
:10049000946FA8518A21956FA9518B21966FAA510B
:1004A0008C21976F94519A5D95519B5996519C5907
:1004B00097519D59D8B05FEF82F061EF82F063EF02
:1004C00082F0C2EF80F094519A5D046E95519B5971
:1004D000056E96519C59066E97519D59076E20EEF8
:1004E0000AF0AD51D926AE51DA22DEC486F6DDC45B
:1004F00087F686C608F587C609F50A6A0B6AF7EC1F
:10050000E2F004C5A3F605C5A4F606C5A5F607C521
:10051000A6F60601A351A411A511A611D8A493EF24
:1005200082F095EF82F097EF82F0C2EF80F0000E3C
:10053000AC6F000EAB6FF60EA35DFF0EA459FF0E5D
:10054000A5590F0EA659D8B0A8EF82F0AAEF82F0F5
:10055000AEEF82F0000EAC6F030EAB6FA651A5118B
:1005600009E1F60EA35DFF0EA459D8B0BAEF82F0F0
:10057000BCEF82F0C0EF82F0000EAC6F020EAB6FEA
:10058000A651A51109E1F60EA35D0F0EA459D8B02E
:10059000CCEF82F0CEEF82F0D2EF82F0000EAC6FA3
:1005A000010EAB6FAB51AC11D8A4D9EF82F0DBEFE9
:1005B00082F0DDEF82F0C2EF80F0020EA325866F9D
:1005C000000EA421876F000EA521886F000EA621C2
:1005D000896F20EE14F0AD51D926AE51DA2286C6CD
:1005E000DEF487C6DEF488C6DEF489C6DEF420EECB
:1005F0001CF0AD51D926AE51DA229EC6DEF49FC65C
:10060000DEF4A0C6DEF4A1C6DEF498519E25866F06
:1006100099519F21876F000EA021886F000EA121A4
:10062000896F20EE20F0AD51D926AE51DA2286C670
:10063000DEF487C6DEF488C6DEF489C6DEF49451A3
:100640009E25866F95519F21876F9651A021886FB7
:100650009751A121896F20EE28F0AD51D926AE51D6
:10066000DA2286C6DEF487C6DEF488C6DEF489C6E2
:10067000DEF4030EAB19AC11D8A441EF83F043EFC5
:1006800083F0A0EF83F05A0EAD25046E000EAE216C
:10069000056EEEECE9F004500510D8B452EF83F08B
:1006A00054EF83F056EF83F0C2EF80F0060120EEA6
:1006B00008F0AD51D926AE51DA22DE50DE10D8B4A2
:1006C00064EF83F066EF83F068EF83F0C2EF80F0B1
:1006D0005C0EAD25046E000EAE21056E45ECE1F01A
:1006E000060120EE24F0AD51D926AE51DA2204C520
:1006F000DEF405C5DEF406C5DEF407C5DEF420EE43
:1007000014F0AD51D926AE51DA22DEC486F6DEC42D
:1007100087F6DEC488F6DEC489F6020ED8908637E6
:10072000873788378937E82E8EEF83F086C68EF6B6
:1007300087C68FF688C690F689C691F640EF84F09A
:1007400020EE08F0AD51D926AE51DA22DE50DE108F
:10075000D8A4ADEF83F0AFEF83F0B1EF83F0C2EF39
:1007600080F020EE20F0AD51D926AE51DA22DEC461
:1007700086F6DEC487F6DEC488F6DEC489F6A751A5
:1007800086258A6FA85187218B6FA95188218C6F8C
:10079000AA5189218D6F20EE24F0AD51D926AE519A
:1007A000DA228AC6DEF48BC6DEF48CC6DEF48DC691
:1007B000DEF4020EAB19AC11D8B4E1EF83F0E3EF35
:1007C00083F029EF84F020EE14F0AD51D926AE511C
:1007D000DA22DEC486F6DEC487F6DEC488F6DEC41E
:1007E00089F6010E86158A6F000E87158B6F000E35
:1007F00088158C6F000E89158D6F20EE14F0AD51A9
:10080000D926AE51DA22DEC404F5DEC405F5DEC415
:1008100006F5DEC407F5030E086E000E096E000E25
:100820000A6E000E0B6E68ECE6F0D89007320632C6
:100830000532043206018A5104248E6F8B51052043
:100840008F6F8C510620906F8D510720916F40EF74
:1008500084F020EE14F0AD51D926AE51DA22DEC478
:1008600086F6DEC487F6DEC488F6DEC489F6D89044
:1008700086358E6F87358F6F8835906F8935916F8C
:10088000FF0E8E25866F010E8F21876F000E90213F
:10089000886F000E9121896F0A0E54EF84F0D89072
:1008A0008933883387338633E82E4FEF84F020EE88
:1008B00018F0AD51D926AE51DA228651DE5C87514F
:1008C000DE588851DE588951DE58D8B06AEF84F07E
:1008D0006CEF84F06EEF84F0C2EF80F020EE10F049
:1008E000AD51D926AE51DA22FF0EDE6EFF0EDE6E5E
:1008F000FF0EDE6EFF0EDD6EDD52DD5210EE0CF0EF
:10090000AD51E126AE51E222DEC4E6F4DEC4E6F4E7
:10091000DEC4E6F4DEC4E6F420EE05F0AD51D926DF
:10092000AE51DA22800EDF6E030EAB19AC11D8A4E3
:100930009CEF84F09EEF84F04BEF85F0600EAD25C8
:10094000046E000EAE21056EEEECE9F00404051015
:10095000D8A4ADEF84F0AFEF84F04BEF85F0ADC6D7
:1009600019F6AEC61AF6010E06019E251B6F000E83
:100970009F211C6F000EA0211D6F000EA1211E6F74
:100980004DECDFF00009D8A4C8EF84F0CAEF84F082
:100990004BEF85F0060120EE05F0AD51D926AE51A2
:1009A000DA22DF6A2E0EAD25046E020EAE21056E30
:1009B000EEECE9F0550E041807E1AA0E0518D8A4CC
:1009C000E4EF84F0E6EF84F04BEF85F0300E0601A3
:1009D000AD25046E000EAE21056E45ECE1F0520E21
:1009E00004180DE1520E05180AE1610E061807E120
:1009F000410E0718D8A4FFEF84F001EF85F04BEF0C
:100A000085F0140E0601AD25046E020EAE21056EB2
:100A100045ECE1F0720E04180DE1720E05180AE1C2
:100A2000410E061807E1610E0718D8A41AEF85F0E9
:100A30001CEF85F04BEF85F0180E0601AD25046E16
:100A4000020EAE21056E45ECE1F0060120EE10F03D
:100A5000AD51D926AE51DA2204C5DEF405C5DEF467
:100A600006C5DEF407C5DEF41C0EAD25046E020ECD
:100A7000AE21056E45ECE1F0060120EE0CF0AD5123
:100A8000D926AE51DA2204C5DEF405C5DEF406C56A
:100A9000DEF407C5DEF4ADC6D9F4AEC6DAF4ABC6F3
:100AA000DFF40701354B362B060120EE06F0AD5181
:100AB000D926AE51DA2235C7DEF436C7DDF46DEF44
:100AC00080F01200000E0501886F62C589F563C5CC
:100AD0008AF564C58BF565C58CF58CBF74EF85F020
:100AE00072EF85F088EF85F0010E886F89C504F5F7
:100AF0008AC505F58BC506F58CC507F5D2ECE9F07E
:100B000004C589F505C58AF506C58BF507C58CF5BD
:100B1000000E05018E6F000E8D6F2FC77CF530C75C
:100B20007DF58851D8B497EF85F099EF85F0ADEF5A
:100B300085F08851D8A49FEF85F0A1EF85F0A7EF4D
:100B400085F0000E6E6F2B0E6D6FABEF85F0000E13
:100B50006E6F2D0E6D6F6DC588F589C504F58AC55C
:100B600005F58BC506F58CC507F550ECDBF00404E4
:100B70000510D8A4BEEF85F0C0EF85F0F3EF85F047
:100B800005018851D8B4C7EF85F0C9EF85F0D2EFE1
:100B900085F088C500F87C07D8A07D07000E8E6F11
:100BA000010E8D6F000E8D25046E080E8E21056ED0
:100BB000F60E066EFF0E076E60ECE9F00501FD0E05
:100BC0007C27FF0E7D2360C515F561C516F5000E67
:100BD000176E080E186E7CC519F57DC51AF549EC1F
:100BE000E3F094EF8AF089C504F58AC505F58BC555
:100BF00006F58CC507F550ECDBF004500510D8A4C1
:100C000004EF86F006EF86F026EF86F005018851A6
:100C1000D8B40DEF86F00FEF86F018EF86F088C598
:100C200000F87C07D8A07D07000E8E6F010E8D6F37
:100C3000000E8D25046E080E8E21056EFA0E066ECE
:100C4000FF0E076E60ECE9F0DEEF85F0000E0501A7
:100C50008F6F000E906F800E916F3F0E926F000E9F
:100C6000776F000E766F89C504F58AC505F58BC5CB
:100C700006F58CC507F5000E086E000E096E000E15
:100C80000A6E000E0B6EFCECE1F0D8B04AEF86F075
:100C90004CEF86F02BEF87F059EF86F078C58FF593
:100CA00079C590F57AC591F57BC592F50501764B2E
:100CB000772B8FC512F590C513F591C514F592C524
:100CC00015F5000E166E000E176E200E186E410EF2
:100CD000196E53ECAEF012C578F513C579F514C54D
:100CE0007AF515C57BF505017851895D046E79515A
:100CF0008A59056E7A518B59066E7B518C59076E55
:100D000053ECE7F007BE90EF86F007500610051091
:100D100009E1020E045CD8A090EF86F092EF86F015
:100D20004EEF86F078C52BF579C52CF57AC52DF5F3
:100D30007BC52EF589C52FF58AC530F58BC531F5F4
:100D40008CC532F5CDECD9F0D8A0A9EF86F0ABEF89
:100D500086F04EEF86F005018F51895D046E90514B
:100D60008A59056E91518B59066E92518C59076EB6
:100D700053ECE7F007BECAEF86F0075006100510E7
:100D800007E1020E045CD8B0C8EF86F0CAEF86F027
:100D900012EF87F08FC589F590C58AF591C58BF55F
:100DA00092C58CF52BEF87F08FC52BF590C52CF5F0
:100DB00091C52DF592C52EF5000E2F6E000E306EEA
:100DC000200E316E410E326E5EECB2F02BC58FF507
:100DD0002CC590F52DC591F52EC592F50501760728
:100DE000D8A077078F51895D046E90518A59056E9E
:100DF00091518B59066E92518C59076E53ECE7F066
:100E000007BE10EF87F007500610051007E1020E2D
:100E1000045CD8B00EEF87F010EF87F012EF87F088
:100E2000CAEF86F089C52BF58AC52CF58BC52DF543
:100E30008CC52EF58FC52FF590C530F591C531F5D0
:100E400092C532F5CDECD9F0D8A029EF87F02BEF81
:100E500087F0D4EF86F066C570F570C571F50701AF
:100E600032BF35EF87F037EF87F03DEF87F031C7BE
:100E700069F532C76AF542EF87F0000E05016A6F27
:100E8000060E696F69C574F56AC575F50501744B81
:100E9000752B660E7119D8A450EF87F052EF87F0CA
:100EA00072EF87F077BF59EF87F057EF87F065EF64
:100EB00087F0000E8F6F000E906F800E916F3F0EC7
:100EC000926F000E776F000E766F670E7019D8B4B0
:100ED0006CEF87F06EEF87F072EF87F07651742732
:100EE00077517523000E876F000E866F89C57EF5DA
:100EF0008AC57FF58BC580F58CC581F58FC578F5E2
:100F000090C579F591C57AF592C57BF503EF88F028
:100F10007EC52BF57FC52CF580C52DF581C52EF539
:100F20008FC52FF590C530F591C531F592C532F5D5
:100F30005EECB2F02BC544F52CC545F52DC546F544
:100F40002EC547F57BECC4F044C582F545C583F555
:100F500046C584F547C585F582C504F583C505F505
:100F600084C506F585C507F54AECD9F004C572F5C8
:100F700005C573F57EC52BF57FC52CF580C52DF510
:100F800081C52EF582C516F583C517F584C518F5FC
:100F900085C519F58FC512F590C513F591C514F5E2
:100FA00092C515F553ECAEF012C52FF513C530F50B
:100FB00014C531F515C532F5B7ECE8F02BC57EF553
:100FC0002CC57FF52DC580F52EC581F58FC52BF578
:100FD00090C52CF591C52DF592C52EF5000E2F6EFE
:100FE000000E306E200E316E410E326E5EECB2F0AD
:100FF0002BC58FF52CC590F52DC591F52EC592F515
:101000000501864B872B7451865D8751800A586E87
:101010007551800A5858D8A010EF88F012EF88F068
:1010200088EF87F08FC512F590C513F591C514F5BB
:1010300092C515F5000E166E000E176EA00E186EF6
:10104000400E196E53ECAEF012C582F513C583F550
:1010500014C584F515C585F57EC52BF57FC52CF522
:1010600080C52DF581C52EF582C52FF583C530F5D8
:1010700084C531F585C532F5CDECD9F0D8B043EF54
:1010800088F045EF88F050EF88F0000E0501826F80
:10109000000E836F000E846F000E856F79EF88F06D
:1010A0007EC504F57FC505F580C506F581C507F544
:1010B00082C508F583C509F584C50AF585C50BF514
:1010C000FCECE1F0D8A067EF88F069EF88F079EFE9
:1010D00088F0050172B16FEF88F071EF88F079EF59
:1010E00088F0000E826F000E836F000E846F000E7A
:1010F000856F89C504F58AC505F58BC506F58CC5D0
:1011000007F582C508F583C509F584C50AF585C5C7
:101110000BF511ECA3F004C57EF505C57FF506C5FA
:1011200080F507C581F57EC52BF57FC52CF580C5FB
:101130002DF581C52EF5000E166E000E176E200ED1
:10114000186E410E196E78C512F579C513F57AC57A
:1011500014F57BC515F553ECAEF012C52FF513C58C
:1011600030F514C531F515C532F5CDECD9F0D8A060
:10117000BCEF88F0BEEF88F0E7EF88F00501764B12
:10118000772B78C512F579C513F57AC514F57BC5AB
:1011900015F5000E166E000E176E200E186E410E1D
:1011A000196E53ECAEF012C578F513C579F514C578
:1011B0007AF515C57BF5660E05017119D8A4E3EF24
:1011C00088F0E5EF88F0E7EF88F0744B752B78C571
:1011D0008FF579C590F57AC591F57BC592F576C501
:1011E00067F577C568F5000E05016F6F000E6C6F2F
:1011F000000E6B6F000E876F000E866FE5EF89F0B3
:101200007EC52BF57FC52CF580C52DF581C52EF546
:101210008FC52FF590C530F591C531F592C532F5E2
:101220005EECB2F02BC544F52CC545F52DC546F551
:101230002EC547F57BECC4F044C582F545C583F562
:1012400046C584F547C585F582C504F583C505F512
:1012500084C506F585C507F54AECD9F005BE3CEF17
:1012600089F0055007E10A0E045CD8B03AEF89F026
:101270003CEF89F04CEF89F082C504F583C505F594
:1012800084C506F585C507F54AECD9F004C572F5A5
:1012900005C573F551EF89F0000E0501736F090E56
:1012A000726F05016F51D8A458EF89F05AEF89F099
:1012B00082EF89F068BF61EF89F05FEF89F082EF1C
:1012C00089F0000E8D25D96E080E8E21DA6E2E0E55
:1012D000DF6E8D4B8E2B7C07D8A07D07010E6F6FC4
:1012E00082EF89F0000E8D25D96E080E8E21DA6E00
:1012F000300EDF6E8D4B8E2B7C07D8A07D076B07E1
:10130000D8A06C076B516C11D8A489EF89F08BEFD2
:1013100089F072EF89F0000E8D25D96E080E8E21AE
:10132000DA6E7251300FDF6E8D4B8E2B7C07D8A09A
:101330007D077EC52BF57FC52CF580C52DF581C5B4
:101340002EF582C516F583C517F584C518F585C534
:1013500019F58FC512F590C513F591C514F592C511
:1013600015F553ECAEF012C52FF513C530F514C5C5
:1013700031F515C532F5B7ECE8F02BC57EF52CC577
:101380007FF52DC580F52EC581F58FC52BF590C550
:101390002CF591C52DF592C52EF5000E2F6E000E81
:1013A000306E200E316E410E326E5EECB2F02BC507
:1013B0008FF52CC590F52DC591F52EC592F505013B
:1013C0006707D8A06807864B872B7451865D8751C5
:1013D000800A586E7551800A5858D8B0F2EF89F0DB
:1013E000F4EF89F002EF8AF08EBF00EF8AF08E51A1
:1013F00009E14B0E8D5DD8A000EF8AF002EF8AF074
:1014000000EF89F0000E876F4F0E866F000E862565
:10141000D96E080E8721DA6EDF6A000E586E080E4C
:10142000596E8D51585E8E51595A86515824046E0A
:1014300087515920056E000E066E080E076E8DC589
:1014400008F58EC509F522ECE8F005018D51865DA1
:101450008D6F8E5187598E6F8851D8A432EF8AF0E4
:1014600035EF8AF0010E36EF8AF0000E866F876B3B
:101470005CA23DEF8AF03FEF8AF06DEF8AF04FEF0C
:101480008AF08D07D8A08E07000E8D25D96E080E24
:101490008E21DA6E300EDF6E7C07D8A07D077C517E
:1014A000865D8751800A586E7D51800A5858D8B0A1
:1014B0005CEF8AF05EEF8AF06DEF8AF08D51865D09
:1014C0008751800A586E8E51800A5858D8A06BEF09
:1014D0008AF06DEF8AF041EF8AF08851D8B473EF4B
:1014E0008AF075EF8AF080EF8AF08D07D8A08E071A
:1014F000000E8D25D96E080E8E21DA6E88C5DFF4B8
:1015000086517C5F87517D5B60C515F561C516F519
:10151000000E8D25176E080E8E21186E7CC519F5EC
:101520007DC51AF549ECE3F0120064C67BF665C68A
:101530007CF668C6D9F469C6DAF4DE6ADD6A62C68A
:10154000BCF563C6BDF58B0E0501BE6F060EBF6F01
:101550004FECDAF006017A6F7A51D8A4B2EF8AF034
:10156000B4EF8AF0C4EF8AF020EE0FF06251D92672
:101570006351DA22DF507A6F7A51D8B4C2EF8AF021
:10158000C4EF8AF0C7EF8AF07A51D8EF8EF020EEE0
:101590000EF06251D9266351DA22DFB2D2EF8AF01F
:1015A000D4EF8AF0D7EF8AF0070ED8EF8EF020EE56
:1015B00010F06251D9266351DA2210EE10F0625118
:1015C000E1266351E222E6C46EF6E6C46FF6E6C495
:1015D00070F6E6C471F666516E25726F67516F2121
:1015E000736F000E7021746F000E7121756FDE50E5
:1015F000725DDE507359DE507459DE507559D8B0A3
:1016000004EF8BF006EF8BF014EF8BF020EE10F070
:101610006251D9266351DA22DEC46AF6DDC46BF664
:101620006A1D666F6B1D676F66516711D8A41BEF4B
:101630008BF01DEF8BF01FEF8BF0CFEF8EF020EED5
:1016400010F06251D9266351DA22FF0EDE146A6F60
:10165000010EDE146B6F000EDE146C6F000EDE14D4
:101660006D6F6A516B116C116D11D8A43AEF8BF04C
:101670003CEF8BF013EF8EF020EE10F06251D92684
:101680006351DA22DEC46AF6DEC46BF6DEC46CF6A1
:10169000DEC46DF60A0E52EF8BF0D8906D336C33CA
:1016A0006B336A33E82E4DEF8BF020EE0AF08B514E
:1016B000D9268C51DA22DEC46EF6DDC46FF6FF0E39
:1016C0006E25706FFF0E6F21716F6A5170157D6FFF
:1016D0006B5171157E6F7D517E11D8A472EF8BF026
:1016E00074EF8BF03CEF8CF020EE10F06251D926B5
:1016F0006351DA22DE50DE10DE10DE10D8A483EF54
:101700008BF085EF8BF0B6EF8BF020EE06F0625198
:10171000D9266351DA22DEC481F6DEC482F6DEC445
:1017200083F6DEC484F68151821183118411D8A41A
:101730009CEF8BF09EEF8BF0D2EF8BF062C645F6FC
:1017400063C646F6000E476F000E486F000E496FE5
:10175000000E4A6FC3EC9DF045C681F646C682F680
:1017600047C683F648C684F6D2EF8BF062C645F6CC
:1017700063C646F620EE14F06251D9266351DA2290
:10178000DEC447F6DEC448F6DEC449F6DEC44AF6D7
:10179000C3EC9DF045C681F646C682F647C683F681
:1017A00048C684F606018151821183118411D8A4A0
:1017B000DCEF8BF0DEEF8BF0E0EF8BF0CFEF8EF015
:1017C0008105821183118411D8A4E9EF8BF0EBEF2E
:1017D0008BF0F6EF8BF020EE0FF06251D9266351BB
:1017E000DA22020EDF6E020ED8EF8EF081290AE1B6
:1017F000822908E1832906E18429D8A402EF8CF02C
:1018000004EF8CF00FEF8CF020EE0FF06251D92630
:101810006351DA22010EDF6E010ED8EF8EF020EE5A
:1018200014F06251D9266351DA2281C6DEF482C6F1
:10183000DEF483C6DEF484C6DEF420EE06F06251E8
:10184000D9266351DA22DE50DE10DE10DE10D8A475
:101850002CEF8CF02EEF8CF03CEF8CF020EE06F0AD
:101860006251D9266351DA2281C6DEF482C6DEF4E3
:1018700083C6DEF484C6DEF420EE0EF06251D92673
:101880006351DA22DFAE47EF8CF049EF8CF08CEF3A
:101890008CF0220E62250501F76F000E0601632110
:1018A0000501F86F060120EE18F06251D926635148
:1018B000DA22DEC4F9F5DEC4FAF5DEC4FBF5DEC4D7
:1018C000FCF5000E0501FE6F010EFD6F060120EE16
:1018D00001F08B51D9268C51DA22DF503DECCFF04C
:1018E0000009D8B476EF8CF078EF8CF083EF8CF0B1
:1018F000060120EE0FF06251D9266351DA22010E63
:10190000DF6E0CEF8CF0060120EE0EF06251D9264E
:101910006351DA227F0EDF168BC610F58CC611F5E7
:1019200020EE14F06251D9266351DA22DEC412F59A
:10193000DEC413F5DEC414F5DEC415F5B3ECDFF038
:1019400010C587F611C588F612C589F613C58AF643
:1019500006018751881189118A11D8A4B2EF8CF041
:10196000B4EF8CF0BEEF8CF020EE0FF06251D92670
:101970006351DA22020EDF6EF3EF8BF07D51872781
:101980007E518823000E8923000E8A2366C66AF6DC
:1019900067C66BF6090E6C6FD8906B336A336C2F89
:1019A000CCEF8CF06AC67FF66BC680F67F51801153
:1019B000D8B4DDEF8CF0DFEF8CF0A3EF8DF07F512A
:1019C0007D256A6F80517E216B6F20EE0AF08B516E
:1019D000D9268C51DA226A51DE5C6B51DE58D8B0C0
:1019E000F4EF8CF0F6EF8CF006EF8DF020EE0AF0BD
:1019F0008B51D9268C51DA22DEC46AF6DDC46BF62F
:101A00007D516A5D7F6F7E516B59806F7BC6F7F5A4
:101A10007CC6F8F587C6F9F588C6FAF589C6FBF5E0
:101A20008AC6FCF57FC6FDF580C6FEF520EE01F006
:101A30008B51D9268C51DA22DF503DECCFF00009D2
:101A4000D8B425EF8DF027EF8DF032EF8DF0060141
:101A500020EE0FF06251D9266351DA22010EDF6EBB
:101A60000CEF8CF006017F516A6F80516B6F6C6BCD
:101A70006D6B20EE18F06251D9266351DA22DEC474
:101A80006EF6DEC46FF6DEC470F6DEC471F6875102
:101A90006E5D726F88516F59736F89517059746F91
:101AA0008A517159756F6A51725D6B5173596C51DE
:101AB00074596D517559D8B060EF8DF062EF8DF0AB
:101AC00092EF8DF0220E6225046E000E6321056EEA
:101AD00020EE18F06251D9266351DA22DEC46AF68C
:101AE000DDC46BF687516A5F88516B5B090ED89035
:101AF0006A376B37E82E77EF8DF06A517B25066EDB
:101B00006B517C21076E020E096E000E086E22ECEE
:101B1000E8F0060120EE0EF06251D9266351DA2278
:101B20007F0EDF167FC66AF680C66BF6090ED89068
:101B30006A376B37E82E97EF8DF06AC685F66BC66D
:101B400086F669EF8EF020EE18F06251D9266351C7
:101B5000DA228751DE180FE18851DE180CE1895135
:101B6000DE1809E18A51DE18D8B4B9EF8DF0BBEF69
:101B70008DF004EF8EF020EE0AF06251D926635109
:101B8000DA2210EE10F06251E1266351E222DE50BB
:101B9000E65CDE50E658DE50E658DE50E658D8B037
:101BA000D4EF8DF0D6EF8DF004EF8EF0220E62258B
:101BB000006F000E6321016F87C602F688C603F628
:101BC00089C604F68AC605F6000E076F010E066F79
:101BD00020EE01F08B51D9268C51DA22DF5076ECC1
:101BE000CEF00009D8B4F7EF8DF0F9EF8DF004EFE7
:101BF0008EF0060120EE0FF06251D9266351DA22F1
:101C0000010EDF6E0CEF8CF0060120EE18F0625131
:101C1000D9266351DA2287C6DEF488C6DEF489C687
:101C2000DEF48AC6DEF420EE10F06251D92663514C
:101C3000DA22DEC46AF6DDC46BF6FF0E6A156C6F3D
:101C4000010E6B156D6F6C510008856F6D51D8A03A
:101C5000E82A0208866F8551665D86516759D8B0BB
:101C600034EF8EF036EF8EF03AEF8EF066C685F6E2
:101C700067C686F620EE10F06251D9266351DA224B
:101C8000DEC46AF6DDC46BF6FF0E6A156C6F010EDA
:101C90006B156D6F6C5162256E6F6D5163216F6FA7
:101CA000220E6E25046E000E6F21056E7BC606F5B2
:101CB0007CC607F585C608F586C609F522ECE8F06E
:101CC000060120EE0EF06251D9266351DA22000E91
:101CD000DB8E8551665F8651675B68C6D9F469C63D
:101CE000DAF48551DE268651DD2285517B27865127
:101CF0007C2320EE10F06251D9266351DA228551FF
:101D0000DE268651DE22000EDE22DE2220EE10F0DC
:101D10006251D9266351DA2210EE0AF06251E126AF
:101D20006351E222DE50E65CDE50E658DE50E658B3
:101D3000DE50E658D8A09FEF8EF0A1EF8EF0B1EF05
:101D40008EF020EE0AF06251D9266351DA22DEC409
:101D500076F6DEC477F6DEC478F6DEC479F6BFEF39
:101D60008EF020EE10F06251D9266351DA22DEC4E3
:101D700076F6DEC477F6DEC478F6DEC479F620EEB9
:101D80000AF06251D9266351DA2276C6DEF477C6AC
:101D9000DEF478C6DEF479C6DEF414EF8BF020EEC4
:101DA0000EF06251D9266351DA22000EDB8C000E50
:101DB000120062C6BCF563C6BDF5850E0501BE6F97
